:020000040800F2
:1000000070070020890100081B1300085312000824
:10001000191300088F020008CB150008000000002B
:10002000000000000000000000000000651500084E
:10003000D102000800000000FF1300086715000847
:10004000A3010008A3010008A3010008A301000800
:10005000A3010008A3010008A3010008A3010008F0
:10006000A3010008A3010008A3010008A3010008E0
:10007000A3010008A3010008A3010008A3010008D0
:10008000A3010008A3010008A3010008A3010008C0
:10009000A3010008A3010008A3010008A3010008B0
:1000A000A3010008A3010008A3010008A3010008A0
:1000B000A3010008A3010008A3010008A301000890
:1000C000A3010008A3010008A3010008011400080F
:1000D000A3010008A3010008A3010008A301000870
:1000E000A3010008A3010008A301000800F002F822
:1000F00000F03AF80AA090E8000C82448344AAF188
:100100000107DA4501D100F02FF8AFF2090EBAE885
:100110000F0013F0010F18BFFB1A43F0010318473B
:10012000A8180000C8180000103A24BF78C878C189
:10013000FAD8520724BF30C830C144BF04680C60ED
:10014000704700000023002400250026103A28BF35
:1001500078C1FBD8520728BF30C148BF0B60704739
:100160001FB51FBD10B510BD00F058F81146FFF7C0
:10017000F7FF01F0B5FA00F076F803B4FFF7F2FFED
:1001800003BC00F07DF8000009488047094800479B
:10019000FEE7FEE7FEE7FEE7FEE7FEE7FEE7FEE737
:1001A000FEE7FEE704480549054A064B7047000094
:1001B000C9150008ED00000870010020700700203C
:1001C00070030020700300204FF0000200B51346BA
:1001D00094469646203922BFA0E80C50A0E80C5067
:1001E000B1F12001BFF4F7AF090728BFA0E80C5018
:1001F00048BF0CC05DF804EB890028BF40F8042B11
:1002000008BF704748BF20F8022B11F0804F18BF7D
:1002100000F8012B7047704770477047754600F033
:100220002BF8AE4605006946534620F00700854688
:1002300018B020B5FFF7B6FFBDE820404FF000062C
:100240004FF000074FF000084FF0000B21F00701BE
:10025000AC46ACE8C009ACE8C009ACE8C009ACE801
:10026000C0098D46704710B50446AFF300802046A4
:10027000BDE81040FFF781BF004870470C01002027
:1002800001491820ABBEFEE7260002007047FEE7DA
:1002900000224FF40061014800F077B9000C0140E2
:1002A0000122D102014800F070B90000000C0140A9
:1002B00000224FF48061014800F067B9000C014052
:1002C00001229102014800F060B90000000C0140D9
:1002D0007047000010B590F821100024022903D0C7
:1002E0000421816301243DE001680A6822F00E02C6
:1002F0000A6001680A6822F001020A601A4A01686D
:10030000914201D1012121E0174A1432914201D1D9
:1003100010211BE0144A2832914201D1891515E0C1
:10032000114A3C32914201D189140FE00E4A5032F9
:10033000914202D14FF4803108E00B4A643291427D
:1003400002D14FF4801101E04FF08071064A083A63
:100350005160012180F82110002180F82010416BAC
:1003600001B18847204610BD0800024070B5044620
:1003700000F010F90546601C02D0044800780444DF
:1003800000F008F9401BA042FAD370BD0C00002019
:100390002DE9F84FDFF8B8910024A9F1040B2346AA
:1003A0000F2709F1040AABF1040EC9E00125A540AD
:1003B0002A40AA427DD1674ED1F804C0ACEB0608B2
:1003C000B44532D014DCBCF1030F3AD009DCBCF1E7
:1003D000000F2AD0BCF1010F1CD0BCF1020F31D1AB
:1003E0001DE0BCF1110F17D0BCF1120F2AD119E09A
:1003F000B8F5881F19D006DCB8F5803F15D0B8F5E0
:10040000801F1FD111E0B8F5001F0ED0B8F5041FF2
:1004100018D10AE0CB6815E0CB681B1D12E0CB6851
:1004200008330FE0CB680C330CE08B682BB1012B49
:100430004FF0080303D0456104E0042302E00561A6
:1004400000E00023FF2A01D8064601E000F104067F
:100450004FEA840501D9A5F12005D6F8008007FAF6
:1004600005FC28EA0C0803FA05F548EA0508C6F871
:1004700000804D68ED0062D5374DAE6946F001064B
:10048000AE61AD6924F0030605F001050095334D1A
:1004900006EB050CDCF80850A607360F07FA06F83D
:1004A00025EA0805DFF8B880404503D14FF0000881
:1004B00017E044E0DFF8AC80404502D14FF001087E
:1004C0000FE0DFF8A480404502D14FF0020808E0B9
:1004D000DFF89880404502D14FF0030801E04FF06B
:1004E000040808FA06F848EA0508CCF808804D68C0
:1004F000D9F80060ED024D4601D5164300E0964361
:100500002E604D68DAF80060AD02554601D51643FD
:1005100000E096432E604D68DBF80060AD035D4659
:1005200001D5164300E096432E604D68DEF800606A
:10053000ED03754601D5164300E096432E60641C1A
:100540000D682A46E5407FF431AFBDE8F88F000022
:10055000080401400000111000100240000001409A
:1005600000080140000C014000100140001401404F
:100570008068084000D001207047C26821EA020369
:100580000A4043EA0241016170470AB101617047C4
:100590000904FBE701488068704700000C00002058
:1005A0000248816802781144816070470C00002085
:1005B000074810B5016841F010010160032000F008
:1005C00075F80F2000F006F800F024F8002010BDA8
:1005D0000020024070B50D4D04464FF47A71287822
:1005E000B1FBF0F00A490968B1FBF0F000F01DFE24
:1005F00048B9102C07D200222146501E00F036F8D0
:1006000000206C6070BD012070BD00000C00002057
:10061000180000200C4808B5816941F00101816192
:10062000816901F001010091C16941F08051C1610E
:10063000C06900F0805000900448416821F0E061FA
:1006400041F00071416008BD00100240000001400F
:10065000002809DB00F01F020121914040098000C1
:1006600000F1E020C0F8001170470000F0B40E4B1C
:100670001B680C46C3F30223C3F10705042D00D900
:100680000425191D072901D2002300E0DB1E0126E5
:1006900006FA05F1491E214099409E40761E1640FB
:1006A0003143F0BC00F092BF0CED00E0064900F0D1
:1006B000070208684FF6FF03184040EA0220034A89
:1006C00010430860704700000CED00E00000FA05E0
:1006D0002DE9F0470F46050061D0434E306800F029
:1006E0000700B84209D2306820F007003843306074
:1006F000306800F00700B84251D128683B4C8107B0
:1007000012D5400703D5606840F4E0606060287847
:10071000000703D5606840F4605060606068A968B5
:1007200020F0F000084360602878C00728D068688F
:10073000012810D02168022810D0890700292EDA5C
:10074000616821F0030101436160FFF723FF8046E8
:1007500041F288390DE021688903EFE78901EDE76F
:10076000FFF718FFA0EB0801494502D90320BDE8B7
:10077000F0876068696800F00C00B0EB810FEFD182
:10078000306800F00700B8420BD9306820F007004D
:1007900038433060306800F00700B84201D00120D3
:1007A000E5E72878400705D56068E96820F4E0604F
:1007B000084360602878000706D56068296920F43E
:1007C000605040EAC100606000F018F86168084AB3
:1007D000C1F30311515CC84006490860064800682F
:1007E000FFF7F8FE0020C2E70020024000100240A0
:1007F000B619000818000020100000200E4A5168A9
:100800000E4801F00C03042B11D0082B0FD10C481B
:10081000C1F38343C903C05C0AD55168084AC1F3D8
:100820004041921E515C054A5043B0FBF1F07047C5
:1008300004494843704700000010024000127A004B
:10084000A619000800093D002DE9F84F040070D0FA
:100850002078C04DC00749D06868C0F381000128E6
:1008600007D06868C0F38100022809D16868C00316
:1008700006D52868800339D560680028E7D035E0C0
:100880006068B0F5803F0BD010B1B0F5A02F11D04B
:10089000286820F480302860286820F4802002E056
:1008A000286840F480302860606890B1FFF772FEDD
:1008B00006460AE0286840F480202860F0E700BF80
:1008C000FFF768FE801B642873D828688003F7D57B
:1008D0000CE0FFF75FFE064605E000BFFFF75AFE9B
:1008E000801B6428F0D828688003F7D420789A4EBB
:1008F00080074FF001094FF0000839D5686810F003
:100900000C0F07D06868C0F38100022809D168681D
:10091000C00306D42868800714D52069012808D1AF
:1009200010E02069B0B1C6F80090FFF733FE07462B
:1009300005E00AE1FFF72EFEC01B0228C4D8286894
:100940008007F7D52868616920F0F80040EAC10007
:1009500028600DE0C6F80080FFF71CFE074604E0A3
:10096000FFF718FEC01B022823D828688007F7D499
:10097000207800072CD57948A169D9B1C0F800903A
:10098000FFF708FE074604E0FFF704FEC01B02283D
:100990000FD8686A8007F7D571484FF4FA5100689C
:1009A000B0FBF1F0009000BF0098411E0091FAD218
:1009B0000EE080E0C0F80080FFF7ECFD074604E0A1
:1009C000FFF7E8FDC01B022875D8686A8007F7D4D6
:1009D0002078400760D5E8690027C00008D4E8699E
:1009E00040F08050E861E869012700F080500090F5
:1009F0005C480168C90513D40168834641F48071DD
:100A00000160FFF7C7FD824606E000BFFFF7C2FDA9
:100A1000A0EB0A0064284ED8DBF80000C005F5D52D
:100A2000E06801280AD008B1052813D0286A20F010
:100A300001002862286A20F0040002E0286A40F0E1
:100A400001002862E06841F2883B98B1FFF7A2FDFF
:100A500082460BE0286A40F004002862EEE700BFFF
:100A6000FFF798FDA0EB0A0159455AD8286A80077C
:100A7000F6D50CE0FFF78EFD824605E0FFF78AFD14
:100A8000A0EB0A0159454CD8286A8007F6D41FB15B
:100A9000E86920F08050E861E06988B36968C1F3D3
:100AA0008101022944D00228C6F8608004D0FFF7F3
:100AB00071FD044638E034E0FFF76CFD074604E0C2
:100AC000FFF768FDC01B02282BD828688001F7D4E7
:100AD000206AB0F5803F05D16868A16820F4003035
:100AE00008436860D4E908010843696821F4741177
:100AF00008436860C6F86090FFF74CFD044606E0C6
:100B000025E000BFFFF746FD001B022809D8286832
:100B10008001F7D51BE000BFFFF73CFD001B02285A
:100B200002D90320BDE8F88F28688001F4D40EE0D4
:100B30000128F7D06868226A00F48031914204D11C
:100B4000616A00F47010884201D00120EAE70020B9
:100B5000E8E70000001002400000424280044242E8
:100B600018000020007000407047000038B50446AF
:100B7000006842688168C9434B0606D5CB0704D19B
:100B8000D3435B0601D4216C05E08B0708D4D34323
:100B90001B0605D4616C01B02046BDE83040084713
:100BA0008B0601D54B0646D4D3439B0643D44B0654
:100BB0000AD494F85130032B3ED0636D43F0040304
:100BC0006365C36883680093890609D4616D41F049
:100BD0000101616581680091016821F040010160B7
:100BE000606D002827D02068416821F0E001416055
:100BF000012084F85100900722D02068416821F03C
:100C000003014160104DE06C40B14563E06CFFF7BB
:100C100061FB18B1606D40F040006065A06C002879
:100C200009D04563A06CFFF755FB002803D0606D29
:100C300040F04000606538BDC1688068009038BDF4
:100C40002046FFF791FF38BD0D14000870B5040071
:100C500009D0606A002540B125616561A56294F8FC
:100C6000510040B10CE0012070BD6068B0F5827F9A
:100C7000F4D0E561F2E784F85050204600F040F8E7
:100C8000022084F851002068016821F040010160D1
:100C9000A088218900F4827001F404410843A189ED
:100CA00001F400610843217C01F002010843217D29
:100CB00001F001010843218B01F400710843217FF9
:100CC00001F03801084394F8201001F08001084336
:100CD000218D01F40051084321680860A0690421B6
:100CE00001EA1040216848602068C16921F4006170
:100CF000C1616565012084F85100002070BD0000CD
:100D000030B585B0002400940194029403940068E7
:100D1000184988422BD11848816941F4805181617A
:100D2000816901F480510491816941F0040181617C
:100D30008069124D00F004000490A0200090022071
:100D400001900320039069462846FFF721FB4020CD
:100D5000CDE90004694628460294FFF719FB0022FA
:100D600001212320FFF782FC2320FFF771FC05B04F
:100D700030BD00000030014000100240000801407A
:100D80002DE9F84F044690F851001D4616460F46CF
:100D9000012838D160684FF00408B0F5827F01D196
:100DA000A06830B3FFF7F6FB8246002F75D0002E07
:100DB00073D094F85000012825D04FF0010984F831
:100DC000509084F851804FF00008C4F85480A76315
:100DD000A687E687C4F83080A4F83480A4F836806B
:100DE000C4F84080C4F84480A068B0F5004F0CD02F
:100DF00015E084F85180009313460A46204600F01F
:100E00001CF9BDE8F88F0220FBE72068016821F09B
:100E1000400101602068016821F480410160206880
:100E20000168490603D4016841F040010160E068AF
:100E3000C0B134E020688168C90709D0007BA16B8C
:100E40000870A06B401CA063E08F401EE08709E0A3
:100E5000FFF7A0FBA0EB0A00A84202D3681C01D058
:100E600032E085B3E08F0028E4D11BE02068816880
:100E7000C90709D0C068A16B0880A06B801CA06363
:100E8000E08F401EE0870AE0FFF784FBA0EB0A003A
:100E9000A84203D3681C02D016E012E09DB1E08F97
:100EA0000028E3D152462946204600F0B7FA08B19F
:100EB0002020606584F8519084F85080606D00288F
:100EC0009FD001209DE7FFE784F8519084F850807F
:100ED000032096E72DE9F84F984616468A460446C1
:100EE000FFF758FB814694F8510001281ED1BAF152
:100EF000000F73D0002E71D094F85000012815D047
:100F0000012784F85070032084F85100002565659E
:100F1000C4F830A0A686E686A563A587E587656444
:100F20002564A068B0F5004F03D00CE00220BDE8B6
:100F3000F88F2068016821F0400101602068016895
:100F400041F48041016020680168490603D40168CA
:100F500041F040010160E068B0F5006F606803D0C7
:100F600048B3012E27D047E008B1012E1FD1206BD6
:100F700021680088C86006E020688168890709D573
:100F8000216B0988C160206B801C2063E08E401EAD
:100F9000E0860CE0FFF7FEFAA0EB0901414503D320
:100FA000B8F1FF3F03D035E0B8F1000F32D0E08E4A
:100FB0000028E1D123E0206B21680078087306E067
:100FC0002068816889070AD5216B09780173206B35
:100FD000401C2063E08E401EE0860DE02BE0FFF712
:100FE000D9FAA0EB0901414503D3B8F1FF3F03D083
:100FF00010E0B8F1000F0DD0E08E0028E0D14A4695
:101000004146204600F038FA08B120206065A0680B
:1010100030B109E084F8517084F85050032086E71D
:101020002068C1688068009084F8517004F8505FAF
:1010300060680028F3D0012079E72DE9FF4F81B0E7
:101040001D46934604464FF001090E9EFFF7A2FA93
:10105000074694F851006168012806D0B1F5827FF7
:101060003CD1A168C9BB042838D10298002871D0AE
:10107000BBF1000FFBD0002DF9D094F850000128EF
:101080002CD04FF0010A84F850A094F851000428A5
:1010900002D0052084F851004FF00008C4F85480B5
:1010A000C4F838B0E587A58702992163E586A5864F
:1010B000C4F84080C4F8448020680168490603D41D
:1010C000016841F040010160E068B0F5006F6068C0
:1010D00008D0F0B3012D49D081E0FFE7022005B030
:1010E000BDE8F08F08B1012D39D1206B216800884F
:1010F000C860206B801C2063E08E401EE0862EE0DE
:101100002068816889070FD5E18E69B1B9F1010FB7
:101110000AD1216B0988C160206B801C2063E08E9E
:10112000401EE0864FF0000920688168C9070CD096
:10113000E18F51B1C068A16B0880A06B801CA063D7
:10114000E08F401EE0874FF00109FFF723FAC01B34
:1011500001E00BE067E0B04201D3701C50D1E08E9B
:101160000028CDD1E08F0028CAD13EE0206B216855
:1011700000780873206B401C2063E08E401EE086E0
:101180002DE02068816889070FD5E18E69B1B9F13A
:10119000010F0AD1216B09780173206B401C206379
:1011A000E08E401EE0864FF0000920688168C90784
:1011B0000CD0E18F51B1C068A16B0870A06B401CCE
:1011C000A063E08F401EE0874FF00109FFF7E2F9CE
:1011D000C01BB04202D3701C01D011E086B1E08E7A
:1011E0000028CED1E08F0028CBD13A4631462046A8
:1011F00000F042F950B12020606584F8508012E080
:1012000084F851A084F85080032068E7A06818B9DA
:101210002068C1688068009084F851A084F85080EC
:10122000606D0028F1D0012059E710B5401EB0F1E3
:10123000807F01D3012010BD4FF0E02460610F21B9
:10124000601700F0C3F90020A06107202061002092
:1012500010BDFEE770B586B000241C4800940194D0
:1012600002940394816941F020018161816901F058
:1012700020010491816941F004018161816901F0DB
:1012800004010491816941F0080181618069104E77
:1012900000F008004FF460650490002229463046B3
:1012A000FFF773F90220CDE9024000950125694658
:1012B00001953046FFF76CF84FF4F8708DE8310077
:1012C00069463046FFF764F806B070BD0010024072
:1012D000000C01400F4810B50D4901604FF48271B8
:1012E000416000218160C1604FF400720161C0E97A
:1012F00005121822C0E90721416281620A21C162F8
:10130000FFF7A4FC002801D072B6FEE710BD000074
:10131000003001401C000020FEE7FEE710B5FEF79C
:10132000B7FF002000F09AFA0021084600F064FAA6
:101330000021012000F060FA0021022000F05CFA98
:101340000321084600F058FA0021042000F054FA66
:101350000021052000F050FA0E21062000F04CFA82
:10136000BDE81040FEF79CBF38B5044600208DF85C
:101370000000FEF79DFFA0208DF8000064230122ED
:1013800069460F48FFF7A6FD4FF47A7320222146E5
:101390000B48FFF79FFDFEF793FF172000F012FAAE
:1013A000C1060BD5000709D4E1208DF8000000F03C
:1013B000EBFA172000F052FA012038BD002038BDAA
:1013C0001C00002070B50D460446FEF761FF29465B
:1013D000052000F011FA05222146102000F022FA23
:1013E000002000F0EFF940F00201002000F004FAC4
:1013F0000520FEF7BBFFBDE87040FEF751BF704708
:101400000148FFF7B3BB00001C00002010B5406A84
:101410000021C187C186FFF7A7FB10BDF8B50446C0
:1014200040684FF48273984217D1A0684FF48065EA
:10143000B0F5004F01D0A8420FD12068066826F011
:10144000400606606068984207D1A068A84204D1AF
:1014500000920B460022012103E000920B4600227D
:101460008021204600F022F8002804D0606D40F072
:10147000200060650320F8BDF8B515460E460B4602
:10148000009204460122022100F010F840B93346D0
:10149000002280212046009500F008F8002804D0A2
:1014A000606D40F0200060650320F8BD2DE9F84331
:1014B0001E46914688460446089DFFF76BF8401B80
:1014C000351AFFF767F8074625480068C0F3CB30A8
:1014D000684338E0701C37D0FFF75CF8C01BA842A7
:1014E00003D215B1009860B32CE02068416821F068
:1014F000E00141606068B0F5827F0BD1A068B0F573
:10150000004F02D0B0F5806F04D12068016821F04F
:1015100040010160A06AB0F5005F09D12068016850
:1015200021F4005101602068016841F4005101601C
:10153000012084F85100002084F850000320BDE809
:10154000F8830025401E00902068816838EA010079
:1015500004D000214945BDD10020F0E70121F9E781
:10156000180000207047FFF71BB830B58FB0282156
:101570006846FEF729FE14210AA8FEF725FE012180
:101580000804CDE900100024029402250491CDE95D
:1015900007504FF4E01009906846FFF755F908B17D
:1015A00072B6FEE70F20CDE90A054FF48060CDE961
:1015B0000C4002210AA80E94FFF78AF8002801D0F7
:1015C00072B6FEE70FB030BD7047FEE70907090E9F
:1015D000002804DB00F1E02080F80014704700F0E0
:1015E0000F0000F1E02080F8141D704770470000E4
:1015F0001049884202D1104A012151700D4A183217
:1016000002F16001904201D146224A70094A30320B
:10161000904201D142224A70064A4832904201D19A
:101620004C224A70034A6032904201D152204870E5
:101630007047000074000020000000200149532082
:1016400048707047EC000020704770B50446818AEE
:101650000069FEF78DFF61780126814204D0607039
:10166000A670FEF797FF6060A078002540B1FEF7F6
:1016700091FF6168401A0F2802D360782070A5702E
:101680002078E178884210D0F8B1FEF783FFA16896
:10169000401AB0F57A7F02D82046FFF7D5FF2046E2
:1016A000FFF7CCFF25732078E070207B00280BD05B
:1016B000FEF770FFA168401A40F6B831884203D3A4
:1016C0002046FFF793FF257370BD26732046FFF772
:1016D0008FFFFEF75FFFA060E5E701618282704740
:1016E000FEF766FFFFF741FFFFF7B4FDFFF7F2FDDE
:1016F000FFF714FE0A213048FFF764FE2F4F4FF426
:10170000807239462E48FFF7E8FF2D48802239467F
:101710001830FFF7E2FF2A48402239463030FFF701
:10172000DCFF2748202239464830FFF7D6FF2448FF
:10173000102239466030FFF7D0FF1F4C204D0026A5
:10174000241F4FF0010878351D48FFF77EFF1C4825
:101750001830FFF77AFF1A483030FFF776FF184845
:101760004830FFF772FF16486030FFF76EFF607871
:10177000012815D1207818B185F80080267002E084
:101780002E7084F800804FF400713846FEF7F5FEA5
:10179000A078401CA0700A4866707830FFF7E4FD1E
:1017A0006878E1788842CFD005487830FFF7DCFDD3
:1017B0006878E070C8E7000004000020000C0140D9
:1017C0007400002001B582B000208DF80000FEF703
:1017D0006FFD6423012202A90648FFF77BFB642307
:1017E000012269460348FFF7CBFAFEF769FD9DF831
:1017F00000000EBD1C00002008B540F020008DF850
:1018000000008DF80110FEF753FD4FF47A730222A9
:1018100069460348FFF75EFBFEF752FD08BD000076
:101820001C00002038B540F0200014460D468DF80D
:101830000000FEF73DFD6423012269460648FFF7DC
:1018400049FBA2B24FF47A7329460348FFF742FBE3
:10185000FEF736FD38BD00001C00002000B587B043
:1018600007287FD017287CD008210020FFF7C4FF6D
:101870003F210120FFF7C0FF03210220FFF7BCFF3B
:1018800003210846FFF7B8FF03210420FFF7B4FF48
:1018900002210520FFF7B0FF0E210620FFF7ACFF65
:1018A00000210720FFF7A8FF00210820FFF7A4FF71
:1018B00000210920FFF7A0FF2FA00522D0E900108A
:1018C000CDE9001069460A20FFF7ACFF2CA00522E5
:1018D000D0E90010CDE9021002A90B20FFF7A2FF0A
:1018E000C3210C20FFF788FFC4210D20FFF784FFE0
:1018F000C5210E20FFF780FFC6210F20FFF77CFFD8
:101900001DA00522D0E90010CDE9041004A9102083
:10191000FFF788FF00211120FFF76EFF0021122042
:10192000FFF76AFF00211320FFF766FF0021142054
:10193000FFF762FF00211520FFF75EFF0021162050
:10194000FFF75AFF11211720FFF756FF00211C2037
:10195000FFF752FF00211D20FFF74EFF07B000BD2B
:1019600000E002E00021072001E01121172007B06C
:101970005DF804EBFFF740BFE7E7E7E7E7000000AB
:10198000C2C2C2C2C200000001B5FEF791FC6423CE
:10199000012269460248FFF79DFAFEF791FC08BD57
:1019A0001C000020010202030405060708090A0BB7
:1019B0000C0D0E0F101000000000000000000102CE
:1019C0000304060708090000E819000800000020C9
:1019D0001C00000028010008041A00081C00002058
:1019E000540700004401000801000000EEDDCCBBFC
:1019F000AA0000000100000010000000000000002C
:041A000000127A0056
:04000005080000ED02
:00000001FF
